{
  "contractName": "DStorage",
  "abi": [
    {
      "inputs": [],
      "stateMutability": "nonpayable",
      "type": "constructor"
    },
    {
      "anonymous": false,
      "inputs": [
        {
          "indexed": false,
          "internalType": "uint256",
          "name": "fileId",
          "type": "uint256"
        },
        {
          "indexed": false,
          "internalType": "string",
          "name": "fileHash",
          "type": "string"
        },
        {
          "indexed": false,
          "internalType": "uint256",
          "name": "fileSize",
          "type": "uint256"
        },
        {
          "indexed": false,
          "internalType": "string",
          "name": "fileType",
          "type": "string"
        },
        {
          "indexed": false,
          "internalType": "string",
          "name": "fileName",
          "type": "string"
        },
        {
          "indexed": false,
          "internalType": "string",
          "name": "fileDescription",
          "type": "string"
        },
        {
          "indexed": false,
          "internalType": "uint256",
          "name": "uploadTime",
          "type": "uint256"
        },
        {
          "indexed": false,
          "internalType": "address payable",
          "name": "uploader",
          "type": "address"
        }
      ],
      "name": "FileUploaded",
      "type": "event"
    },
    {
      "inputs": [],
      "name": "fileCount",
      "outputs": [
        {
          "internalType": "uint256",
          "name": "",
          "type": "uint256"
        }
      ],
      "stateMutability": "view",
      "type": "function",
      "constant": true
    },
    {
      "inputs": [
        {
          "internalType": "uint256",
          "name": "",
          "type": "uint256"
        }
      ],
      "name": "files",
      "outputs": [
        {
          "internalType": "uint256",
          "name": "fileId",
          "type": "uint256"
        },
        {
          "internalType": "string",
          "name": "fileHash",
          "type": "string"
        },
        {
          "internalType": "uint256",
          "name": "fileSize",
          "type": "uint256"
        },
        {
          "internalType": "string",
          "name": "fileType",
          "type": "string"
        },
        {
          "internalType": "string",
          "name": "fileName",
          "type": "string"
        },
        {
          "internalType": "string",
          "name": "fileDescription",
          "type": "string"
        },
        {
          "internalType": "uint256",
          "name": "uploadTime",
          "type": "uint256"
        },
        {
          "internalType": "address payable",
          "name": "uploader",
          "type": "address"
        }
      ],
      "stateMutability": "view",
      "type": "function",
      "constant": true
    },
    {
      "inputs": [],
      "name": "name",
      "outputs": [
        {
          "internalType": "string",
          "name": "",
          "type": "string"
        }
      ],
      "stateMutability": "view",
      "type": "function",
      "constant": true
    },
    {
      "inputs": [
        {
          "internalType": "string",
          "name": "_fileHash",
          "type": "string"
        },
        {
          "internalType": "uint256",
          "name": "_fileSize",
          "type": "uint256"
        },
        {
          "internalType": "string",
          "name": "_fileType",
          "type": "string"
        },
        {
          "internalType": "string",
          "name": "_fileName",
          "type": "string"
        },
        {
          "internalType": "string",
          "name": "_fileDescription",
          "type": "string"
        }
      ],
      "name": "uploadFile",
      "outputs": [],
      "stateMutability": "nonpayable",
      "type": "function"
    },
    {
      "inputs": [
        {
          "internalType": "uint256",
          "name": "id",
          "type": "uint256"
        }
      ],
      "name": "getFiles",
      "outputs": [
        {
          "components": [
            {
              "internalType": "uint256",
              "name": "fileId",
              "type": "uint256"
            },
            {
              "internalType": "string",
              "name": "fileHash",
              "type": "string"
            },
            {
              "internalType": "uint256",
              "name": "fileSize",
              "type": "uint256"
            },
            {
              "internalType": "string",
              "name": "fileType",
              "type": "string"
            },
            {
              "internalType": "string",
              "name": "fileName",
              "type": "string"
            },
            {
              "internalType": "string",
              "name": "fileDescription",
              "type": "string"
            },
            {
              "internalType": "uint256",
              "name": "uploadTime",
              "type": "uint256"
            },
            {
              "internalType": "address payable",
              "name": "uploader",
              "type": "address"
            }
          ],
          "internalType": "struct DStorage.File",
          "name": "",
          "type": "tuple"
        }
      ],
      "stateMutability": "view",
      "type": "function",
      "constant": true
    }
  ],
  "bytecode": "0x60806040526040518060400160405280600881526020017f4453746f7261676500000000000000000000000000000000000000000000000081525060009080519060200190620000519291906200006b565b5060006001553480156200006457600080fd5b5062000180565b82805462000079906200011b565b90600052602060002090601f0160209004810192826200009d5760008555620000e9565b82601f10620000b857805160ff1916838001178555620000e9565b82800160010185558215620000e9579182015b82811115620000e8578251825591602001919060010190620000cb565b5b509050620000f89190620000fc565b5090565b5b8082111562000117576000816000905550600101620000fd565b5090565b600060028204905060018216806200013457607f821691505b602082108114156200014b576200014a62000151565b5b50919050565b7f4e487b7100000000000000000000000000000000000000000000000000000000600052602260045260246000fd5b6110c880620001906000396000f3fe608060405234801561001057600080fd5b50600436106100575760003560e01c806306fdde031461005c57806312506f4d1461007a57806343953519146100aa578063e82d9d33146100c8578063f4c714b4146100e4575b600080fd5b61006461011b565b6040516100719190610d37565b60405180910390f35b610094600480360381019061008f9190610b9b565b6101a9565b6040516100a19190610d59565b60405180910390f35b6100b2610493565b6040516100bf9190610d7b565b60405180910390f35b6100e260048036038101906100dd9190610ac4565b610499565b005b6100fe60048036038101906100f99190610b9b565b6106c1565b604051610112989796959493929190610d96565b60405180910390f35b6000805461012890610f31565b80601f016020809104026020016040519081016040528092919081815260200182805461015490610f31565b80156101a15780601f10610176576101008083540402835291602001916101a1565b820191906000526020600020905b81548152906001019060200180831161018457829003601f168201915b505050505081565b6101b1610949565b6002600083815260200190815260200160002060405180610100016040529081600082015481526020016001820180546101ea90610f31565b80601f016020809104026020016040519081016040528092919081815260200182805461021690610f31565b80156102635780601f1061023857610100808354040283529160200191610263565b820191906000526020600020905b81548152906001019060200180831161024657829003601f168201915b505050505081526020016002820154815260200160038201805461028690610f31565b80601f01602080910402602001604051908101604052809291908181526020018280546102b290610f31565b80156102ff5780601f106102d4576101008083540402835291602001916102ff565b820191906000526020600020905b8154815290600101906020018083116102e257829003601f168201915b5050505050815260200160048201805461031890610f31565b80601f016020809104026020016040519081016040528092919081815260200182805461034490610f31565b80156103915780601f1061036657610100808354040283529160200191610391565b820191906000526020600020905b81548152906001019060200180831161037457829003601f168201915b505050505081526020016005820180546103aa90610f31565b80601f01602080910402602001604051908101604052809291908181526020018280546103d690610f31565b80156104235780601f106103f857610100808354040283529160200191610423565b820191906000526020600020905b81548152906001019060200180831161040657829003601f168201915b50505050508152602001600682015481526020016007820160009054906101000a900473ffffffffffffffffffffffffffffffffffffffff1673ffffffffffffffffffffffffffffffffffffffff1673ffffffffffffffffffffffffffffffffffffffff16815250509050919050565b60015481565b60008551116104a757600080fd5b600084116104b457600080fd5b60008351116104c257600080fd5b60008251116104d057600080fd5b60008151116104de57600080fd5b600073ffffffffffffffffffffffffffffffffffffffff163373ffffffffffffffffffffffffffffffffffffffff16141561051857600080fd5b6001600081548092919061052b90610f94565b919050555060405180610100016040528060015481526020018681526020018581526020018481526020018381526020018281526020014281526020013373ffffffffffffffffffffffffffffffffffffffff168152506002600060015481526020019081526020016000206000820151816000015560208201518160010190805190602001906105bd9291906109a4565b506040820151816002015560608201518160030190805190602001906105e49291906109a4565b5060808201518160040190805190602001906106019291906109a4565b5060a082015181600501908051906020019061061e9291906109a4565b5060c0820151816006015560e08201518160070160006101000a81548173ffffffffffffffffffffffffffffffffffffffff021916908373ffffffffffffffffffffffffffffffffffffffff1602179055509050507f6e95bbaa37a5fdec42a312e049dea2fe6160ebe659214d3409b4f91f164c2f52600154868686868642336040516106b2989796959493929190610d96565b60405180910390a15050505050565b60026020528060005260406000206000915090508060000154908060010180546106ea90610f31565b80601f016020809104026020016040519081016040528092919081815260200182805461071690610f31565b80156107635780601f1061073857610100808354040283529160200191610763565b820191906000526020600020905b81548152906001019060200180831161074657829003601f168201915b50505050509080600201549080600301805461077e90610f31565b80601f01602080910402602001604051908101604052809291908181526020018280546107aa90610f31565b80156107f75780601f106107cc576101008083540402835291602001916107f7565b820191906000526020600020905b8154815290600101906020018083116107da57829003601f168201915b50505050509080600401805461080c90610f31565b80601f016020809104026020016040519081016040528092919081815260200182805461083890610f31565b80156108855780601f1061085a57610100808354040283529160200191610885565b820191906000526020600020905b81548152906001019060200180831161086857829003601f168201915b50505050509080600501805461089a90610f31565b80601f01602080910402602001604051908101604052809291908181526020018280546108c690610f31565b80156109135780601f106108e857610100808354040283529160200191610913565b820191906000526020600020905b8154815290600101906020018083116108f657829003601f168201915b5050505050908060060154908060070160009054906101000a900473ffffffffffffffffffffffffffffffffffffffff16905088565b60405180610100016040528060008152602001606081526020016000815260200160608152602001606081526020016060815260200160008152602001600073ffffffffffffffffffffffffffffffffffffffff1681525090565b8280546109b090610f31565b90600052602060002090601f0160209004810192826109d25760008555610a19565b82601f106109eb57805160ff1916838001178555610a19565b82800160010185558215610a19579182015b82811115610a185782518255916020019190600101906109fd565b5b509050610a269190610a2a565b5090565b5b80821115610a43576000816000905550600101610a2b565b5090565b6000610a5a610a5584610e55565b610e30565b905082815260208101848484011115610a7257600080fd5b610a7d848285610eef565b509392505050565b600082601f830112610a9657600080fd5b8135610aa6848260208601610a47565b91505092915050565b600081359050610abe8161107b565b92915050565b600080600080600060a08688031215610adc57600080fd5b600086013567ffffffffffffffff811115610af657600080fd5b610b0288828901610a85565b9550506020610b1388828901610aaf565b945050604086013567ffffffffffffffff811115610b3057600080fd5b610b3c88828901610a85565b935050606086013567ffffffffffffffff811115610b5957600080fd5b610b6588828901610a85565b925050608086013567ffffffffffffffff811115610b8257600080fd5b610b8e88828901610a85565b9150509295509295909350565b600060208284031215610bad57600080fd5b6000610bbb84828501610aaf565b91505092915050565b610bcd81610eb3565b82525050565b610bdc81610eb3565b82525050565b6000610bed82610e86565b610bf78185610e91565b9350610c07818560208601610efe565b610c108161106a565b840191505092915050565b6000610c2682610e86565b610c308185610ea2565b9350610c40818560208601610efe565b610c498161106a565b840191505092915050565b600061010083016000830151610c6d6000860182610d19565b5060208301518482036020860152610c858282610be2565b9150506040830151610c9a6040860182610d19565b5060608301518482036060860152610cb28282610be2565b91505060808301518482036080860152610ccc8282610be2565b91505060a083015184820360a0860152610ce68282610be2565b91505060c0830151610cfb60c0860182610d19565b5060e0830151610d0e60e0860182610bc4565b508091505092915050565b610d2281610ee5565b82525050565b610d3181610ee5565b82525050565b60006020820190508181036000830152610d518184610c1b565b905092915050565b60006020820190508181036000830152610d738184610c54565b905092915050565b6000602082019050610d906000830184610d28565b92915050565b600061010082019050610dac600083018b610d28565b8181036020830152610dbe818a610c1b565b9050610dcd6040830189610d28565b8181036060830152610ddf8188610c1b565b90508181036080830152610df38187610c1b565b905081810360a0830152610e078186610c1b565b9050610e1660c0830185610d28565b610e2360e0830184610bd3565b9998505050505050505050565b6000610e3a610e4b565b9050610e468282610f63565b919050565b6000604051905090565b600067ffffffffffffffff821115610e7057610e6f61103b565b5b610e798261106a565b9050602081019050919050565b600081519050919050565b600082825260208201905092915050565b600082825260208201905092915050565b6000610ebe82610ec5565b9050919050565b600073ffffffffffffffffffffffffffffffffffffffff82169050919050565b6000819050919050565b82818337600083830152505050565b60005b83811015610f1c578082015181840152602081019050610f01565b83811115610f2b576000848401525b50505050565b60006002820490506001821680610f4957607f821691505b60208210811415610f5d57610f5c61100c565b5b50919050565b610f6c8261106a565b810181811067ffffffffffffffff82111715610f8b57610f8a61103b565b5b80604052505050565b6000610f9f82610ee5565b91507fffffffffffffffffffffffffffffffffffffffffffffffffffffffffffffffff821415610fd257610fd1610fdd565b5b600182019050919050565b7f4e487b7100000000000000000000000000000000000000000000000000000000600052601160045260246000fd5b7f4e487b7100000000000000000000000000000000000000000000000000000000600052602260045260246000fd5b7f4e487b7100000000000000000000000000000000000000000000000000000000600052604160045260246000fd5b6000601f19601f8301169050919050565b61108481610ee5565b811461108f57600080fd5b5056fea2646970667358221220d783ac599291a7b95281bdacd11fd9bc059ec834407c2ccfd01a2f1947ed906c64736f6c63430008040033",
  "immutableReferences": {},
  "source": "pragma solidity ^0.8.4;\r\n\r\ncontract DStorage {\r\n  string public name = \"DStorage\";\r\n  uint public fileCount = 0;\r\n\r\n  mapping(uint => File) public files;\r\n\r\n  // struct of file\r\n  struct File {\r\n    uint fileId;\r\n    string fileHash;\r\n    uint fileSize;\r\n    string fileType;\r\n    string fileName;\r\n    string fileDescription;\r\n    uint uploadTime;\r\n    address payable uploader;\r\n  }\r\n\r\n  // event\r\n  event FileUploaded(\r\n    uint fileId,\r\n    string fileHash,\r\n    uint fileSize,\r\n    string fileType,\r\n    string fileName,\r\n    string fileDescription,\r\n    uint uploadTime,\r\n    address payable uploader\r\n  );\r\n\r\n  constructor() public {\r\n\r\n  }\r\n\r\n  // upload function\r\n  function uploadFile(string memory _fileHash, uint _fileSize, string memory _fileType, string memory _fileName, string memory _fileDescription) public{\r\n\r\n    require(bytes(_fileHash).length > 0);\r\n    require(_fileSize > 0);\r\n    require(bytes(_fileType).length > 0);\r\n    require(bytes(_fileName).length > 0);\r\n    require(bytes(_fileDescription).length > 0);\r\n    require(msg.sender != address(0));\r\n\r\n    fileCount++;\r\n\r\n    files[fileCount] = File(fileCount, _fileHash, _fileSize, _fileType, _fileName,_fileDescription, block.timestamp, payable(msg.sender));\r\n\r\n    // trigger an event\r\n    emit FileUploaded(fileCount, _fileHash, _fileSize, _fileType, _fileName,_fileDescription, block.timestamp, payable(msg.sender));\r\n  }\r\n\r\n\r\n  function getFiles(uint id) external view returns (File memory) {\r\n    return files[id];\r\n  }\r\n}\r\n\r\n\r\n",
  "sourcePath": "D:\\vdocs-main\\src\\contracts\\DStorage.sol",
  "compiler": {
    "name": "solc",
    "version": "0.8.4+commit.c7e474f2.Emscripten.clang"
  },
  "schemaVersion": "3.4.11",
  "updatedAt": "2023-03-08T05:31:50.053Z",
  "networkType": "ethereum",
  "devdoc": {
    "kind": "dev",
    "methods": {},
    "version": 1
  },
  "userdoc": {
    "kind": "user",
    "methods": {},
    "version": 1
  }
}